:100000000C9499000C94C1000C94C1000C94C10094
:100010000C94C1000C94C1000C94C1000C94040415
:100020000C94C1000C94C1000C94C1000C94C1004C
:100030000C94C1000C94C1000C94C1000C94C1003C
:100040000C94BA030C94C1000C9486040C946004C4
:100050000C94C1000C94C1000C94C1000C94C1001C
:100060000C94C1000C94C100E905EF05EF05EF0504
:10007000EF05EF05EF05EF05EF05EF05EF05EF05E0
:10008000EF05EF05EF05EF05EF059F05EF05EF0520
:10009000EF05EF05EF05EF05EF05EF05EF05EF05C0
:1000A000EF05EF05EF05EF05EF05DB05C305A70538
:1000B000E205E605B505C805A405E405CB05D405AC
:1000C000AE05B105AB05CD05BD05D205A905CD052C
:1000D000DD05D905C005BA05D705B805E00500005E
:1000E00000080002010000030407000000000000F7
:1000F00000000200000000250028002B0000000086
:1001000000240027002A0004040404040404040258
:1001100002020202020303030303030102040810A4
:100120002040800102040810200102040810200071
:10013000020611241FBECFEFD8E0DEBFCDBF11E015
:10014000A0E0B1E0E8E7FCE002C005900D92A63126
:10015000B107D9F722E0A6E1B1E001C01D92A43DAC
:10016000B207E1F710E0C9E9D0E004C02197FE0131
:100170000E942F06C839D107C9F70E94B8040C9411
:100180003A060C940000EEE1F1E02491EAE0F1E09F
:100190008491882399F090E0880F991FFC01E35027
:1001A000FF4FA591B491FC01ED50FF4F85919491C3
:1001B0008FB7F894EC91E22BEC938FBF0895CF9317
:1001C00080910001833021F08F3F09F0D5C004C039
:1001D000E2EFF0E0C49174C083E080930001E2EFAD
:1001E000F0E0E491EF3F09F4C7C0E13011F1E230F3
:1001F00009F442C0E11163C014BC15BC84B582602F
:1002000084BD85B5816085BDEAE0F1E0E491F0E070
:10021000EE0FFF1FED50FF4F859194919093C70211
:100220008093C602EEE1F1E0E491E093C502C0E004
:1002300049C01092800010928100809181008860F6
:100240008093810080918100816080938100EAE049
:10025000F1E0E491F0E0EE0FFF1FED50FF4F8591CC
:1002600094919093C4028093C302EEE1F1E0E49193
:10027000E093C202C1E026C01092B0001092B1001B
:100280008091B00082608093B0008091B100816065
:100290008093B100EAE0F1E0E491F0E0EE0FFF1F9F
:1002A000ED50FF4F859194919093C1028093C002CD
:1002B000EEE1F1E0E491E093BF02C2E003C0CE2F93
:1002C000C7FD5AC00E94C300CC2309F43FC0C2300E
:1002D000A9F1C130E9F480918100887F8160809329
:1002E00081008FE39FE190938900809388008FEFD6
:1002F0009FEFDC018093CC029093CD02A093CE02BD
:10030000B093CF0280916F00826080936F0034C001
:10031000C23091F58FE38093B3008FEF9FEFDC0144
:100320008093C8029093C902A093CA02B093CB02F3
:10033000809170008260809370001EC08091B10037
:10034000887F83608093B10089EFE5CF85B5887F92
:10035000836085BD8CE787BD8FEF9FEFDC018093C5
:10036000D0029093D102A093D202B093D302809195
:100370006E00826080936E00CF9108953FB7F8942D
:100380008091BB029091BC02A091BD02B091BE02CF
:1003900026B5A89B05C02F3F19F00196A11DB11DE0
:1003A0003FBFBA2FA92F982F8827820F911DA11D1B
:1003B000B11DBC01CD0142E0660F771F881F991F58
:1003C0004A95D1F708958F929F92AF92BF92CF92A4
:1003D000DF92EF92FF926B017C010E94BE014B0104
:1003E0005C01C114D104E104F104F1F00E94BE01EA
:1003F000DC01CB0188199909AA09BB09883E934001
:10040000A105B10570F321E0C21AD108E108F10895
:1004100088EE880E83E0981EA11CB11CC114D10483
:10042000E104F10419F7DDCFFF90EF90DF90CF905A
:10043000BF90AF909F908F90089590910001981376
:1004400024C0E2EFF0E0E4919FEF90930001E130EF
:10045000B9F098F0E230C9F4909170009D7F9093CC
:10046000700091E09093B0009091B100987F9460FB
:100470009093B1001092B30008C010926E0005C0B6
:1004800090916F009D7F90936F0090E0FC01E2528D
:10049000FF4F2491FC01E55EFE4F3491FC01E95FC2
:1004A000FE4FE491EE23B9F1222339F1233091F08C
:1004B00038F42130A9F0223001F584B58F7D12C0C7
:1004C000273091F02830A1F02430B9F480918000D9
:1004D0008F7D03C0809180008F77809380000DC056
:1004E00084B58F7784BD09C08091B0008F7703C039
:1004F0008091B0008F7D8093B000F0E0EE0FFF1F81
:10050000ED50FF4FA591B4918FB7F894EC913095D1
:100510003E233C938FBF0895CF92DF92EF92FF92DC
:100520000F931F93CF93DF936C017A018B01C0E08F
:10053000D0E0CE15DF0589F0D8016D918D01D6018F
:10054000ED91FC910190F081E02DC6010995892B78
:1005500011F47E0102C02196ECCFC701DF91CF914B
:100560001F910F91FF90EF90DF90CF900895089525
:1005700080E090E00895FC01538D448D252F30E0FC
:10058000842F90E0821B930B541710F0CF960895A0
:1005900001970895FC01918D828D981761F0828DED
:1005A000DF01A80FB11D5D968C91928D9F5F9F73A7
:1005B000928F90E008958FEF9FEF0895FC01918D49
:1005C000828D981731F0828DE80FF11D858D90E0B6
:1005D00008958FEF9FEF0895FC01918D228D892F53
:1005E00090E0805C9F4F821B91098F73992708953B
:1005F00089E192E00E94EC0221E0892B09F420E0DD
:10060000822F0895FC01848DDF01A80FB11DA35A2C
:10061000BF4F2C91848D90E001968F739927848F22
:10062000A689B7892C93A089B1898C9180648C9319
:10063000938D848D981306C00288F389E02D808104
:100640008F7D80830895EF92FF920F931F93CF9336
:10065000DF93EC0181E0888F9B8D8C8D981305C012
:10066000E889F989808185FD24C0F62E0B8D10E084
:100670000F5F1F4F0F731127E02E8C8DE8120CC0F7
:100680000FB607FCFACFE889F989808185FFF5CF9D
:10069000CE010E940203F1CF8B8DFE01E80FF11D08
:1006A000E35AFF4FF0820B8FEA89FB8980818062D9
:1006B00007C0EE89FF896083E889F98980818064B9
:1006C000808381E090E0DF91CF911F910F91FF90A7
:1006D000EF900895CF93DF93EC01888D8823C9F0C4
:1006E000EA89FB89808185FD05C0A889B9898C913B
:1006F00086FD0FC00FB607FCF5CF808185FFF2CFD6
:10070000A889B9898C9185FFEDCFCE010E940203A3
:10071000E7CFDF91CF91089580E090E0892B29F019
:100720000E94F80281110C94000008950E94DF00DD
:1007300064EF71E080E090E00E94E30183E00E94BA
:100740001D0264EF71E080E090E00C94E3010E94F0
:10075000DF0064E670E080E090E00E94E30183E067
:100760000E941D0264EF71E080E090E00C94E301D0
:100770000E9435061F920F920FB60F9211242F93ED
:100780003F938F939F93AF93BF938091B7029091C4
:10079000B802A091B902B091BA023091B60223E03A
:1007A000230F2D3720F40196A11DB11D05C026E8A9
:1007B000230F0296A11DB11D2093B6028093B702AC
:1007C0009093B802A093B902B093BA028091BB0291
:1007D0009091BC02A091BD02B091BE020196A11DF4
:1007E000B11D8093BB029093BC02A093BD02B09355
:1007F000BE02BF91AF919F918F913F912F910F902A
:100800000FBE0F901F9018951F920F920FB60F9268
:1008100011242F933F934F935F936F937F938F9305
:100820009F93AF93BF93EF93FF938091C8029091F2
:10083000C902A091CA02B091CB02892B8A2B8B2BC3
:1008400051F18091BF02E091C002F091C10290810C
:10085000892780838091C8029091C902A091CA0221
:10086000B091CB02181619061A061B06C4F4809123
:10087000C8029091C902A091CA02B091CB0201971F
:10088000A109B1098093C8029093C902A093CA023A
:10089000B093CB0204C0809100010E941D02FF9121
:1008A000EF91BF91AF919F918F917F916F915F91E8
:1008B0004F913F912F910F900FBE0F901F90189561
:1008C0001F920F920FB60F9211242F933F934F93C5
:1008D0005F936F937F938F939F93AF93BF93EF93A8
:1008E000FF9389E192E00E940203FF91EF91BF9193
:1008F000AF919F918F917F916F915F914F913F91B8
:100900002F910F900FBE0F901F9018951F920F926E
:100910000FB60F9211242F938F939F93EF93FF9312
:10092000E0912902F0912A028081E0912F02F0915A
:10093000300282FD12C09081809132028F5F8F73EE
:1009400020913302821751F0E0913202F0E0E75E2D
:10095000FD4F958F8093320201C08081FF91EF910E
:100960009F918F912F910F900FBE0F901F90189510
:10097000789484B5826084BD84B5816084BD85B57A
:10098000826085BD85B5816085BD80916E00816086
:1009900080936E001092810080918100826080932C
:1009A000810080918100816080938100809180002E
:1009B0008160809380008091B10084608093B10059
:1009C0008091B00081608093B00080917A00846053
:1009D00080937A0080917A00826080937A0080917F
:1009E0007A00816080937A0080917A008068809399
:1009F0007A001092C100E0912902F0912A0282E06F
:100A00008083E0912502F09126021082E091270276
:100A1000F09128028FEC808310923102E0912D0238
:100A2000F0912E0286E08083E0912B02F0912C025F
:100A3000808180618083E0912B02F0912C02808183
:100A400088608083E0912B02F0912C028081806885
:100A50008083E0912B02F0912C0280818F7D808336
:100A60000E94C30089E192E00E94EC02892BD1F33D
:100A700089E192E00E94EC02892B91F1C09117026A
:100A8000D091180289E192E00E94CA02682FC85EE4
:100A9000DE4F8883E0911902F0911A020190F081F3
:100AA000E02D89E192E0099542E050E063E171E0D8
:100AB00089E192E00E948C028091170290911802C5
:100AC000FC01E85EFE4F20813FE9320F3A3110F41D
:100AD0002052208301969093180280931702C8CF6A
:100AE00042E050E063E171E089E192E00E948C0213
:100AF000009117021091180210931701009316012C
:100B00001092180210921702C0911702D091180289
:100B10000C171D070CF46FC0FE01E85EFE4FE0816C
:100B20008E2FEE0F990BAA0BBB0BFC01B097EB338A
:100B3000F10508F054C0EC5CFF4F0C942F060E94A6
:100B4000A7030E94960329C00E94A7031EC00E940B
:100B500096030E94A7030E94960338C00E94A70331
:100B600031C00E9496030E9496030E94A703F1CF12
:100B70000E9496030E94A70312C00E94A70308C008
:100B80000E94A70316C00E9496030E94A7031CC0E0
:100B90000E949603E0CF0E94A7030E9496030E9442
:100BA00096030BC00E9496030E94960304C00E9405
:100BB00096030E94A7030E94A7030E9496030FC0FA
:100BC0000E9496030E9496030E94A7030E94A70317
:100BD00006C060E971E080E090E00E94E30168EC0B
:100BE00070E080E090E00E94E3012196D09318022B
:100BF000C093170289CF10921802109217020E9418
:100C00008C0330CFE9E1F2E01382128288EE93E0A8
:100C1000A0E0B0E084839583A683B78385E091E06C
:100C20009183808385EC90E09587848784EC90E0C5
:100C30009787868780EC90E0918B808B81EC90E0A9
:100C4000938B828B82EC90E0958B848B86EC90E08A
:100C5000978B868B118E128E138E148E0895EE0F45
:100C6000FF1F0590F491E02D099481E090E0F89445
:080C70000C943A06F894FFCF42
:100C7800FF0000000023038C02BB026A03EC02CAD7
:060C880002DE020D0A006D
:00000001FF
